:020000040800F2
:10000000008001205D350008D12B0008D32B0008AB
:10001000D52B0008D72B0008D92B000800000000C2
:10002000000000000000000000000000DB2B0008C2
:10003000DD2B000800000000DF2B0008E12B00088A
:10004000AD350008AD350008AD350008AD35000808
:10005000AD350008AD350008AD350008AD350008F8
:10006000AD350008AD350008AD350008AD350008E8
:10007000AD350008AD350008AD350008AD350008D8
:10008000AD350008AD350008AD350008AD350008C8
:10009000AD350008AD350008AD350008E52B00088A
:1000A000AD350008AD350008AD350008AD350008A8
:1000B000AD350008AD350008AD350008AD35000898
:1000C000AD350008AD350008AD350008AD35000888
:1000D000AD350008AD350008AD350008AD35000878
:1000E000052C0008AD350008AD350008AD35000819
:1000F000AD350008AD350008AD350008AD35000858
:10010000AD350008AD350008AD350008AD35000847
:10011000AD350008AD350008AD350008AD35000837
:10012000AD350008AD350008AD350008AD35000827
:10013000AD350008AD350008AD350008AD35000817
:10014000AD350008AD350008AD350008AD35000807
:10015000AD350008AD350008AD350008AD350008F7
:10016000AD350008AD350008AD350008AD350008E7
:10017000AD350008AD3500080000000000000000AB
:08018000AD350008AD350008A3
:1001900010B5054C237833B9044B13B10448AFF3C1
:1001A00000800123237010BD6800002000000000C3
:1001B0008C3E000808B5034B1BB103490348AFF35D
:1001C000008008BD000000006C0000208C3E00088C
:1001D00001F0FF01102A2BDB10F0070F08D010F8F8
:1001E000013B013A8B422DD010F0070F42B3F6D1FC
:1001F000F0B441EA012141EA014122F007047FF015
:1002000000070023F0E80256083C85EA010586EA6B
:10021000010685FA47F5A3FA87F586FA47F6A5FAA7
:1002200087F68EB9EED1F0BC01F0FF0102F00702B3
:1002300032B110F8013B013A83EA010313B1F8D15E
:100240000020704701387047002D06BF354603383F
:10025000073815F0010F07D1013015F4807F02BF78
:10026000013015F4C03F0130F0BC0138704700BFC9
:1002700053B94AB9002908BF00281CBF4FF0FF310D
:100280004FF0FF3000F07AB9ADF1080C6DE904CE03
:1002900000F006F8DDF804E0DDE9022304B0704761
:1002A0002DE9F0478C460D460446089E002B51D19F
:1002B0008A4217466DD9B2FA82FEBEF1000F0BD00A
:1002C000CEF1200C01FA0EF520FA0CFC02FA0EF722
:1002D0004CEA050C00FA0EF44FEA174A250CBCFB59
:1002E000FAF81FFA87F90AFB18CC45EA0C4508FB17
:1002F00009F3AB420AD9ED1908F1FF3280F02381EE
:10030000AB4240F22081A8F102083D44ED1AA4B2AC
:10031000B5FBFAF00AFB105544EA054400FB09F965
:10032000A14509D9E41900F1FF3380F00A81A14504
:1003300040F2078102383C44A4EB090440EA08403B
:100340000021002E61D024FA0EF400233460736083
:10035000BDE8F0878B4207D9002E54D0002186E8F3
:1003600021000846BDE8F087B3FA83F1002940F088
:100370008E80AB4202D3824200F2FA80841A65EB8F
:1003800003050120AC46002E3FD086E81010BDE8E2
:10039000F08712B90127B7FBF2F7B7FA87FEBEF173
:1003A000000F34D1EB1B3A0C1FFA87FC0121B3FB81
:1003B000F2F8250C02FB183345EA03450CFB08F361
:1003C000AB4207D9ED1908F1FF3002D2AB4200F27F
:1003D000D1808046ED1AA3B2B5FBF2F002FB1055B6
:1003E00043EA05440CFB00FCA44507D9E41900F1DD
:1003F000FF3302D2A44500F2B8801846A4EB0C04E7
:1004000040EA08409DE731463046BDE8F087CEF12E
:10041000200405FA0EF307FA0EF720FA04F83A0C56
:1004200025FA04F448EA0308B4FBF2F14FEA184550
:1004300002FB11441FFA87FC45EA044501FB0CF35B
:10044000AB4200FA0EF409D9ED1901F1FF3080F04A
:100450008A80AB4240F2878002393D44EB1A1FFA92
:1004600088F5B3FBF2F002FB103345EA034500FBCD
:100470000CF3AB4207D9ED1900F1FF386FD2AB4254
:100480006DD902383D44EB1A40EA01418FE7C1F1D2
:10049000200722FA07F88B4005FA01F448EA030323
:1004A00020FA07FE4FEA134CFD404EEA040EB5FB5E
:1004B000FCF94FEA1E440CFB19551FFA83F844EA75
:1004C000054509FB08F4AC4202FA01F200FA01FA10
:1004D00008D9ED1809F1FF3043D2AC4241D9A9F156
:1004E00002091D442D1B1FFA8EFEB5FBFCF00CFB10
:1004F00010554EEA054400FB08F8A04507D9E4185A
:1005000000F1FF3529D2A04527D902381C4440EA22
:100510000940A4EB0804A0FB02894C45C6464D46A1
:1005200015D312D056B1BAEB0E0364EB050404FAEE
:1005300007F7CB401F43CC40376074600021BDE813
:10054000F0871846F8E69046E0E6C245EAD2B8EBF6
:10055000020E69EB03050138E4E72846D7E7404679
:1005600091E78146BEE7014678E702383C4445E71B
:10057000084608E7A8F102083D442BE7704700BF92
:1005800038B50A4B054618684FF47A73B0FBF3F0A0
:1005900000F070F8044638B9024629464FF0FF30A3
:1005A00000F028F8204638BD012038BD00000020AA
:1005B00010B5032000F00CF80020FFF7E1FF04461F
:1005C00018B902F0EDFA204610BD0124FBE7000047
:1005D000074AD36823F4E0631B041B0C43F0BF639A
:1005E000000243F4003300F4E0600343D36070473B
:1005F00000ED00E0174B30B5DC68C4F30224C4F111
:100600000703251D042B28BF0423062D4FF00105E9
:1006100005FA03F303F1FF338CBF033C00241940B8
:10062000A14005FA04F4013C2240002842EA0102FC
:100630004FEA0212AFBF00F1604000F00F00064B1E
:10064000D2B2A5BF00F56140D2B21A5480F800239F
:1006500030BD00BF00ED00E014ED00E042090123D1
:1006600000F01F0003FA00F0014B43F8220070472E
:1006700000E100E00138B0F1807F0AD2064B074A62
:100680005860F02182F823100020072298601A6039
:1006900070470120704700BF10E000E000ED00E06F
:1006A000144B984217D02033984216D020339842EA
:1006B00015D02033984214D02033984213D02033E1
:1006C000984212D02033984211D0203398420CBF68
:1006D000072000207047002070470120704702204B
:1006E000704703207047042070470520704706209C
:1006F000704700BF0060014038B50446002867D04D
:100700000068344DFFF7CCFF55F82030002B5FD147
:10071000204601F04BFE304B1A6801321A601B680C
:10072000012B19D12D4B1A6822F080421A601A68E9
:10073000A1680A431A601A6822F47F021A602279BB
:10074000012A05D1E1681A68013942EA01421A60BA
:100750001A6842F000421A6020686169036823F455
:1007600071430360236902680B43A1690B43134380
:1007700003600368216A23F00F030360E3690268E2
:100780000B43134303608368616AA26A23F45F0327
:1007900083608368013A0B4343EA02438360436802
:1007A000226B03F007034360436843EAC203E26A33
:1007B00043EA02234360036843F08003036001239C
:1007C00084F83430FFF76CFF45F82040002038BD36
:1007D000012038BD84000020A400002000600140FA
:1007E0002DE9F04F85B00B68DFF8A881674C0193C5
:1007F0000023019ADA4002D105B0BDE8F08F01264E
:10080000019A9E4012EA060E00F0B1804A6822F07A
:100810001007022F16D14FEAD30900EB890903F024
:10082000070AD9F820504FEA8A0A4FF00F0C0CFA49
:100830000AFC25EA0C0C0D6905FA0AF545EA0C05D7
:10084000C9F820504FEA430C0325D0F800B005FA50
:100850000CF5ED4302F0030A0BEA050B0AFA0CF95A
:10086000013F49EA0B09012FC0F8009011D88768B1
:1008700005EA0709CF6807FA0CF747EA0907876016
:10088000476827EA0609C2F300179F4047EA0907AD
:100890004760BAF1030F07D1C76A27EA0606C2F319
:1008A000C0079F403E43C662C66835408E6806FA60
:1008B0000CF63543C560D50059D5D8F8605045F0E1
:1008C0000105C8F86050D8F8605023F0030606F11F
:1008D000804605F0010506F58036039503F0030C0C
:1008E000039DB5684FEA8C0C0F2707FA0CF7B0F19F
:1008F000904F25EA07073CD0254DA8423BD005F58F
:100900008065A84239D005F58065A84237D005F545
:100910008065A84235D005F58065A84233D005F53D
:100920008065A84214BF0725062505FA0CF53D434E
:10093000B56025686FEA0E06D70354BF35404EEA0E
:10094000050525606568970354BF35404EEA0505E7
:100950006560A568D70254BF35404EEA0505A5601D
:10096000E568920254BF35404EEA0505E560013363
:100970003FE70025D9E70125D7E70225D5E703257D
:10098000D3E70425D1E70525CFE700BF00040140E8
:1009900000040048001002400AB181617047816282
:1009A0007047704708B5044B5969014202D058613D
:1009B000FFF7F7FF08BD00BF0004014010B5044673
:1009C00000284AD090F8413003F0FF021BB980F8AC
:1009D000402001F09FFE242384F841302368E16821
:1009E0001A6822F001021A60626822F070621A61CD
:1009F0009A68012922F400429A60A26824D142F444
:100A000000429A605A68616942F0007242F4004202
:100A10005A60DA6822F40042DA6022690A43A16966
:100A200042EA0122DA60216AE2690A431A601A681E
:100A300042F001021A6000202023606484F84130F3
:100A4000206384F8420010BD42F4044202299A60F7
:100A500004BF4FF400625A60D4E7012010BD90F843
:100A60004120D2B2202A10B51DD190F84030012B80
:100A700019D0242380F8413003681C6824F0010455
:100A80001C601C6824F480541C601C68214319609D
:100A9000196841F001011960002380F8412080F8B5
:100AA0004030184610BD022010BD10B590F84140EE
:100AB000E4B2202C1CD190F84030012B18D0242314
:100AC00080F8413003681A6822F001021A601A683F
:100AD00022F4706242EA012119601A6842F00102B0
:100AE0001A60002380F8414080F84030184610BD5D
:100AF000022010BD2DE9F04104468AB0002874D0D0
:100B000090F8BD3303F0FF021BB980F8BC2302F05C
:100B1000D5FC2546032355F8100B84F8BD3301F0AE
:100B200034FB0FCD6E460FC60FCD0FC695E8030000
:100B300086E8030004F1040898E80E00206801F03C
:100B4000F5FA0021206801F026FB00212246234609
:100B500004F110050126084683F83C10A3F8421062
:100B600001310F2983F83D6083F83F005864986491
:100B7000186503F11C03EFD100231F4682F8FC31F6
:100B800001330F2B82F8FD7182F8FF71C2F80472F5
:100B9000C2F80872C2F8107202F11C02EED10FCD39
:100BA0006E460FC60FCD0FC695E8030086E803001A
:100BB00098E80E00206801F02FFB012384F83870BC
:100BC00084F8BD33636A012B02D1204600F00FF890
:100BD000A36A012B02D1204600F01CF8206801F026
:100BE000B7FB00200AB0BDE8F0810120FAE70268F7
:100BF00003460121C0F8FC13002083F8F403936935
:100C000043F000639361536D43F0805343F003035B
:100C10005365704702680123C0F80034936B43F4B6
:100C20000033936300207047024A136843F48073D3
:100C30001360704700700040024B186800F4C060F9
:100C4000704700BF00700040174B1A68B0F5007F76
:100C500002F4C0621CD1B2F5007F15D01A6822F4EC
:100C6000C06242F400721A60104A116832224A438C
:100C70000F49B2FBF1F2194601325869400500D51F
:100C800022B94B695B050DD400207047013AF4E7A7
:100C9000B2F5806F1FBF1A6822F4C06242F480620E
:100CA0001A60F1E703207047007000400000002048
:100CB00040420F00024A536843F480635360704718
:100CC000007000402DE9F041069D04460F4616468F
:100CD000984621688A683A4214BF01220022B24233
:100CE00002D10020BDE8F0816B1CF3D002F036F891
:100CF000A0EB0800854201D3002DEAD1042384F83B
:100D00003930E36B43F00103E3630120BDE8F08178
:100D100037B5044602F022F80546002C49D094F875
:100D20003830012B47D0012384F8383094F839202B
:100D300002F0FF033AB984F83830204601F0A0FEF3
:100D400041F2883323642068A1680268236C01396A
:100D500022F4706242EA0122026020210093002204
:100D60002B462046FFF7AEFFF0B922686568116890
:100D7000E36821F07F4143EA056321F010010B4352
:100D80001360A169636955680B43216943EA014314
:100D90000A4929400B435360136843F00103136071
:100DA0000123E06384F83930002384F8383003B03D
:100DB00030BD0120FBE70220F9E700BFFEF8E0FFAD
:100DC00037B51E4DAB6DDA00044618D5FFF734FF7A
:100DD000B0F5007F23D1802C29D9A02C8CBF022014
:100DE0000120174A136823F00703034313601368B5
:100DF00003F00703181A18BF012003B030BDAB6D14
:100E000043F08053AB65AB6D03F080530193019BBE
:100E1000FFF712FFAB6D23F08053AB65D8E7802C52
:100E200007D808D0A4F1700358425841D9E70020F0
:100E3000D7E70320D5E70220D3E700BF0010024028
:100E400000200240254B9A68D96812F00C0205D0A8
:100E50000C2A15D101F00301012918D11968204885
:100E6000090755BFD3F894101968C1F30321C1F3E2
:100E7000031150F8210082B30C2A09D000207047DA
:100E8000042A29D0082A174818BF002070470020DC
:100E9000D968DA6801F00301C2F30212022902F1F3
:100EA000010205D0032912D0D968C1F3062103E05D
:100EB000D9680D48C1F30621DB68B0FBF2F0C3F33B
:100EC0004163013348435B00B0FBF3F07047D968DE
:100ED0000448C1F30621EFE70348704700100240C1
:100EE000303F000800127A000024F4002DE9F74397
:100EF000054618B9012003B0BDE8F083A54C03688E
:100F0000A668E768DB0606F00C0607F003073CD589
:100F10001EB10C2E63D1012F61D12368980702D531
:100F2000AB69002BE6D02368286A190756BFD4F8AE
:100F3000943023681B0903F0F00383423AD2FFF791
:100F40003FFF0028D6D1236843F0080323602368BD
:100F50002A6A23F0F003134323606368EA6923F4E9
:100F60007F4343EA02236360FFF76CFFA3688A4A6A
:100F7000C3F30313D35C03F01F03D840874B1860FF
:100F80000020FFF7FDFA0028B5D12B68D8075DD403
:100F90002B68990700F19C802B68180700F1D0801E
:100FA0002B68590700F1FC80AB6A002B40F065818B
:100FB0000020A0E7236843F008032360236823F0A0
:100FC000F003034323606368EA6923F47F4343EA41
:100FD00002236360FFF7F4FE0028C5D08AE7AB69FF
:100FE0001BB3236843F00103236001F0B7FE804682
:100FF00023689A0711D5236843F008032360236808
:101000002A6A23F0F003134323606368EA6923F438
:101010007F4343EA02236360B7E701F09FFEA0EB42
:1010200008000228E4D9032065E7236823F00103C0
:10103000236001F093FE804623689B07A5D501F04D
:101040008DFEA0EB08000228F6D9ECE7082E03D0AD
:101050000C2E08D1032F06D123689A0398D56B680C
:10106000002B95D146E76B68B3F5803F10D123681C
:1010700043F48033236001F071FE804623689B03B4
:1010800086D401F06BFEA0EB08006428F6D9CAE70D
:10109000B3F5A02F04D1236843F480232360E6E74F
:1010A000226822F480322260226822F480222260A8
:1010B000002BE0D101F052FE8046236898037FF5B3
:1010C00067AF01F04BFEA0EB08006428F5D9AAE752
:1010D000042E03D00C2E10D1022F0ED123685905F7
:1010E00003D5EB68002B3FF405AF63682A6923F052
:1010F000F85343EA026363604EE7EB687BB1236811
:1011000043F48073236001F029FE074623685A05E3
:10111000EBD401F023FEC01B0228F7D983E7236834
:1011200023F48073236001F019FE074623685B05F2
:101130007FF532AF01F012FEC01B0228F6D972E72C
:101140006B699BB1D4F8943043F00103C4F8943038
:1011500001F004FE0746D4F894309A073FF520AF1B
:1011600001F0FCFDC01B0228F5D95CE7D4F89430EF
:1011700023F00103C4F8943001F0F0FD0746D4F8E1
:1011800094309B077FF50CAF01F0E8FDC01B0228EF
:10119000F5D948E700100240163F00080000002083
:1011A000A36DD80029D4A36D43F08053A365A36D2C
:1011B00003F080530193019B4FF001085D4F3B68A2
:1011C000D9051DD5AB68012B2BD1D4F8903043F055
:1011D0000103C4F8903001F0C1FD41F2883907469F
:1011E000D4F890309B0742D5B8F1000F3FF4DCAE45
:1011F000A36D23F08053A365D6E64FF00008DDE72A
:101200003B6843F480733B6001F0A8FD81463B6876
:10121000DA05D7D401F0A2FDA0EB09000228F6D927
:1012200001E7052B06D1D4F8903043F00403C4F84D
:101230009030CAE7D4F8902022F00102C4F8902040
:10124000D4F8902022F00402C4F89020002BC2D1E0
:1012500001F084FD41F288390746D4F890309807B0
:10126000C2D501F07BFDC01B4845F6D9DBE601F095
:1012700075FDC01B4845B3D9D5E60C2E3FF43AAEF8
:10128000022B236823F08073236037D101F066FDC1
:101290000646236899012BD46A6BEB6A43EA022362
:1012A0002A6B013A43EA0213AA6B120943EA42434A
:1012B000EA6B5208013A43EA42532A6C5208013A57
:1012C00043EA4263E360236843F080732360E3688A
:1012D00043F08073E36001F041FD054623689A0105
:1012E0003FF566AE01F03AFD401B0228F6D99AE6BA
:1012F00001F034FD801B0228CBD994E6236813F05B
:10130000205F02BFE36823F00303E360E36823F098
:10131000887323F48033E36001F020FD05462368E1
:101320009B017FF545AE01F019FD401B0228F6D95F
:1013300079E600BF007000402DE9F0410E460446FA
:1013400010B90120BDE8F081404A136803F007039B
:101350008B4229D32368D90731D421688A075BD40B
:101360003A4A136803F007039E425DD311F0040F5D
:10137000374D64D10B0706D5AB68226923F460535F
:1013800043EAC203AB60FFF75DFDAB68314AC3F3CC
:101390000313BDE8F041D35C03F01F03D8402E4B8C
:1013A00018600020FFF7ECB8136823F007030B4325
:1013B0001360136803F007039942C2D1CAE7626859
:1013C000234D032A2B681BD113F0007FB9D0AB68E3
:1013D00023F003031343AB6001F0C0FC41F28838F3
:1013E0000746AB68626803F00C03B3EB820FB4D01E
:1013F00001F0B4FCC01B4045F3D90320BDE8F081E7
:10140000022A02D113F4003FE0E712B913F0020FF1
:10141000DCE713F4806FD9E70D4AA068936823F0E6
:10142000F003034393609BE7136823F00703334300
:101430001360136803F007039E4282D196E7AB68FE
:10144000E26823F4E0631343AB6093E700200240BB
:1014500000100240163F000800000020014B1868F1
:10146000704700BF00000020054B064A9B68C3F38D
:101470000223D35C044A106803F01F03D84070476E
:1014800000100240263F000800000020054B064ADD
:101490009B68C3F3C223D35C044A106803F01F03A4
:1014A000D840704700100240263F0008000000208E
:1014B000F8B5454BDA6812F0030F05460E461C4698
:1014C00000682AD0DA6802F0030282423CD1002A86
:1014D0003AD0DB686A68C3F302130133934233D115
:1014E000236823F08063236001F038FC07462368FB
:1014F0001A0132D4AF68002E36D0012E50D12269A5
:10150000286922F4C002400822F4FE42013842EA6F
:10151000072242EA4052226132E0022810D003281A
:1015200014D0012810D11B689F0738D5E3686A687A
:1015300023F07303013A184340EA0210E060CFE75A
:101540001B6813F4806FF1D10120F8BD1A68910374
:10155000ECD41B6813F4802FF5E701F0FFFBC01BF0
:101560000228C4D90320F8BD2169EB6821F41F319A
:1015700021F4407141EA07211B0941EA43412161FD
:10158000236843F08063236001F0E8FB064623688C
:101590001B0113D52369AA69134323610020F8BDF9
:1015A0002369686923F0C063400823F4FE430138CF
:1015B00043EA072343EA40632361E1E701F0CEFBFE
:1015C000801B0228E3D9CDE700100240F8B53D4B5F
:1015D000DA6812F0030F05460E461C46006828D054
:1015E000DA6802F0030282423AD1002A38D0DB687E
:1015F0006A68C3F302130133934231D1236823F0A5
:101600008053236001F0AAFB074623689A0030D478
:10161000A868002E34D06369296923F0C0634908A3
:1016200023F4FE43013943EA002343EA4163636143
:1016300032E0022810D0032814D0012810D11B68F2
:101640009F0738D5E3686A6823F07303013A1843AB
:1016500040EA0210E060D1E71B6813F4806FF1D11B
:101660000120F8BD1A689103ECD41B6813F4802F95
:10167000F5E701F073FBC01B0228C6D90320F8BDB3
:101680006269EB6822F41F3222F4407242EA0022BF
:101690001B0942EA43426261236843F0805323609E
:1016A00001F05CFB064623689B0005D563696A6907
:1016B000134363610020F8BD01F050FB801B02283A
:1016C000F1D9DBE7001002402DE9F347066816F474
:1016D0000066044624D0416EB1F5800F2CD002D8AC
:1016E000C1B101261CE0B1F5000F0DD0B1F5400FDE
:1016F000F7D14D4A616ED2F8883023F440030B4392
:10170000C2F8883000260BE0474AD36843F48033A0
:10171000D360EEE70430FFF7CBFE06460028E8D0A2
:101720002368D80406D5A16EB1F1807F74D008D8A3
:10173000A9B10126354621E000212030FFF746FF00
:10174000EBE7B1F1007F04D0B1F1407FF1D1354634
:1017500009E0354AD36843F48033D360F7E7201DAE
:10176000FFF7A6FE0546002D5CD12F4AA16ED2F8E8
:10177000883023F040730B43C2F888302368990304
:1017800040F14F81284FBB6DDA0040F176814FF078
:101790000008DFF89890D9F8003043F48073C9F856
:1017A000003001F0DBFA8246D9F80030DB053FD586
:1017B000002D44D1D7F8903013F4407315D0D4F8ED
:1017C0008420934211D0D7F89030D7F8902042F47B
:1017D0008032C7F89020D7F8902023F4407322F489
:1017E0008032C7F89020C7F89030D80709D501F0AB
:1017F000B5FA41F288390546D7F89030990740F19B
:101800000981D7F89030D4F8842023F4407313432F
:10181000C7F89030354612E0002104F12000FFF7B0
:10182000D5FE9FE72E46A9E7001002400070004059
:1018300001F094FAA0EB0A000228B5D90325B8F10B
:10184000000F03D0BB6D23F08053BB652368DA071C
:1018500008D59049A06BD1F8882022F003020243FA
:10186000C1F888209F0708D58A49E06BD1F8882005
:1018700022F00C020243C1F888205E0708D5854992
:10188000206CD1F8882022F030020243C1F8882071
:10189000180708D57F49606CD1F8882022F0C00273
:1018A0000243C1F88820D90608D57A49A06CD1F83E
:1018B000882022F440720243C1F888209A0608D595
:1018C0007449E06CD1F8882022F440620243C1F8E8
:1018D00088209F0508D56F49E06DD1F8882022F453
:1018E00040220243C1F888205E0508D56949206E70
:1018F000D1F8882022F440120243C1F8882058060B
:1019000008D56449206DD1F8882022F44052024362
:10191000C1F88820190608D55E49606DD1F8882085
:1019200022F440420243C1F88820DA0508D559491B
:10193000A06DD1F8882022F440320243C1F88820FB
:101940009B040FD5534AE16ED2F8883023F04063F0
:101950000B43B1F1006FC2F8883064D1D36843F40F
:101960008013D36023681F030FD54A4A216FD2F832
:10197000883023F040630B43B1F1006FC2F8883028
:101980005CD1D36843F48013D36023685E030FD522
:10199000404A616FD2F8883023F040630B43B1F1C5
:1019A000006FC2F8883054D1D36843F48013D360F9
:1019B0002368580412D53749A26FD1F8883023F034
:1019C00040531343B2F1805FC1F888304CD10221FB
:1019D000201DFFF76DFD002818BF05462268110481
:1019E00008D52C49E06FD1F8883023F080430343B9
:1019F000C1F88830D30309D5264AD4F88010D2F82C
:101A0000883023F000430B43C2F88830284602B0E8
:101A1000BDE8F08701F0A2F9401B48457FF6ECAE27
:101A20000CE7354612E7B1F1806F9BD10121201DF3
:101A3000FFF73EFD002818BF054693E7B1F1806F20
:101A4000A3D10121201DFFF733FD002818BF054653
:101A50009BE7B1F1806FABD10121201DFFF728FD7D
:101A6000002818BF0546A3E7B2F1005FB6D10221F6
:101A700004F12000FFF7AAFDADE7BB6D43F08053F2
:101A8000BB65BB6D03F080530193019B4FF00108D0
:101A90007FE600BF00100240024A136843F00403CF
:101AA000136070470010024070B5044600284AD009
:101AB0000023836290F85D3003F0FF021BB980F8C9
:101AC0005C2001F039F80223216884F85D300B684E
:101AD000E26823F04003B2F5E06F0B604FF00003C3
:101AE0002ED91846B2F5706F18BFA362236B2BB9BD
:101AF000B2F5E06F8CBF022301232363A6686368FD
:101B0000A56933432669334366693343E669334342
:101B1000266A3343A66A334305F4007633430B60E9
:101B2000636A1A43636B2D0C1A4305F004052A43BC
:101B30000243012300204A60206684F85D3070BDB6
:101B40004FF48050D0E7012070BD00000268C169E9
:101B5000F8B5044683680069156803436069034368
:101B6000BA480B432840034313605368E06823F4EA
:101B7000405303435360B64BA0699A421CBF236A8B
:101B80001843936823F4306303439360B14B9A4244
:101B900019D103F55843B04AD3F8883003F0030352
:101BA000B1F5004FD35C40F03881082B00F28F80F4
:101BB000DFE813F01A01CA00F9008D0014018D004E
:101BC0008D008D003600A54B9A4207D103F5E63310
:101BD000A34AD3F8883003F00C03E1E7A14B9A4203
:101BE00023D103F5E433D3F8883003F03003102B0E
:101BF00000F0F1800BD8002B00F0F380B1F5004F1E
:101C00004FF001024FF0000300F0F880A8E0202B15
:101C100000F0C680302BF1D1B1F5004F40F0B88014
:101C20006068430803F58033C3E08F4B9A421ED1AE
:101C300003F5E233D3F8883003F0C003402B00F003
:101C4000BB800AD87BB9824B9A4240F0CA80FFF72A
:101C50000BFC0023B0BB02463AE0802B00F09D80D5
:101C6000C02B00F0B0807A4B9A42C7D12FE07F4B57
:101C70009A4211D103F5E033D3F8883003F440736E
:101C8000B3F5807F00F09880DCD9B3F5007F00F0D9
:101C90008480B3F5407FE4E76D4B9A42AED103F503
:101CA000C833D3F8883003F44063B3F5806F00F095
:101CB0008380C7D9B3F5006F6FD0B3F5406FD0E71D
:101CC0006B480223626802EB4201814205D901227E
:101CD0000023236663661046F8BDB0EB023FF6D8DA
:101CE000082B2ED8DFE803F0052D1C2D242D2D2DDB
:101CF0002700FFF7B9FB62684FF480715608002790
:101D0000E1FB0067002330463946FEF7B1FA0022B6
:101D1000584BA0F540719942D9D82368D860D7E7CD
:101D20005548550800230021401941F10001ECE716
:101D3000FFF788F8DFE750080021002310F50000C6
:101D4000F3E701220020E3E7FFF7A0FB4EE0FFF7F7
:101D50008BFB626800EB5203B3FBF2F39BB20022F1
:101D6000A3F110004FF6EF718842B0D82168CB6024
:101D7000AEE7FFF78BFBECE76068430803F57403FD
:101D800003F51053B3FBF0F3E8E7FFF75BF8E0E788
:101D90006068430803F50043F4E72D4B9A428FD067
:101DA000B1F5004FE8D16068430803F1F47303F51F
:101DB0009043B3FBF0F31FE0254B9A420BD1FFF7A2
:101DC00041F8042346E7224B9A427FF425AF4FF4B3
:101DD0000040082376E7B1F5004FD6D1FFF732F87F
:101DE00004E0B1F5004FB2D1FFF73EFB61684A084D
:101DF00002EB4003B3FBF1F39BB20022A3F110000E
:101E00004FF6EF7188423FF662AF23F00F01206872
:101E1000C3F342030B43C3605AE7082B3FF657AFA7
:101E200001A252F823F000BF4F1D0008731D0008E7
:101E3000791D0008CF1C00088B1D0008CF1C00086E
:101E4000CF1C0008CF1C0008911D0008F369FFEFAC
:101E50000080004000380140A43E000800440040DB
:101E6000A83E000800480040004C004000500040E0
:101E70000024F400FFFC0F00000024F4436ADA079A
:101E800010B506D50168846A4A6822F400322243FC
:101E90004A609C0706D50168C46A4A6822F4803209
:101EA00022434A60590706D50168046B4A6822F448
:101EB000802222434A601A0706D50168446B4A68AB
:101EC00022F4004222434A60DC0606D50168846B96
:101ED0008A6822F4805222438A60990606D50168F6
:101EE000C46B8A6822F4005222438A605A060FD5D6
:101EF0000168046C4A6822F480122243B4F5801F02
:101F00004A6005D14A68446C22F4C00222434A6008
:101F10001B0606D50268816C536823F400230B432B
:101F2000536010BD2DE9F041069D04460F4616464C
:101F300098462168CA6937EA02030CBF01220022D1
:101F4000B24202D00020BDE8F0816B1CF2D09DB9F6
:101F500023681A6822F4D0721A609A6822F001028B
:101F60009A60202384F8713084F87230002384F85A
:101F700070300320BDE8F08100F0F0FEA0EB080017
:101F80008542D6D2E4E72DE9F3411F4690F871303F
:101F9000202B04460D4690464AD1002946D0002AFF
:101FA00044D090F87030012B42D0012380F870307B
:101FB00000234367212380F8713000F0CFFEA4F89E
:101FC00050800646A4F85280B4F85220009792B28E
:101FD000334652B940212046FFF7A4FF58B92023C9
:101FE00084F8713084F8700006E0002280212046D9
:101FF000FFF798FF18B1032002B0BDE8F081A36895
:102000002268B3F5805F0DD123695BB935F8023BD7
:10201000C3F308031385B4F85230013B9BB2A4F814
:102020005230D1E72B7813850135F4E70120E3E73F
:102030000220E1E773B504460026466700F08EFEF5
:1020400023681B681A07054617D423681B685B07BB
:102050000AD56FF07E43009300222B464FF4800197
:102060002046FFF75FFFA0B92023002084F87130DD
:1020700084F8700084F872300CE06FF07E430093B7
:10208000324603464FF400112046FFF74BFF00286D
:10209000DBD0032002B070BD10B5044660B390F8E9
:1020A000713003F0FF021BB980F8702001F090F945
:1020B0002268242384F87130136823F0010313602D
:1020C0002046FFF743FD012816D0636A13B120466E
:1020D000FFF7D4FE23685A6822F490425A609A6847
:1020E00022F02A029A601A6842F0010220461A6021
:1020F000BDE81040FFF79EBF012010BD0A4B013B19
:1021000001D1032070470269002AF8DA0369064A00
:1021100043F001030361013AF3D0036913F00103B3
:10212000F9D11846704700BF410D030084B038B59F
:1021300005AD85E80E000A9B012B04461BD1836B7D
:1021400023F480338363C36823F4840323F04003C0
:10215000C360C36823F44013C360119B012B02BF0B
:10216000C36843F48013C360FFF7C8FFBDE838407D
:10217000002004B07047C36843F04003C360FFF71A
:10218000BDFF4FF48033A363F0E7836823F00103BE
:1021900083600020704708B5C368012923F0C0435D
:1021A000C36008D1C36843F00053C360322000F01D
:1021B000BDFD002008BD19B9C36843F08043F4E7B2
:1021C000012008BD890141F02001064A0161013A60
:1021D00005D0036913F02003F9D118467047032096
:1021E000704700BF410D03001023064A0361013A06
:1021F00005D0036913F01003F9D118467047032086
:10220000704700BF410D0300D0F800381943C0F8F3
:10221000001800207047000084B02DE9F04104460A
:1022200007A880E80E000023119F8846194603F195
:10223000400204EB820201330F2B5160F7D1A36BF4
:1022400043F40013A3635FB9A36B23F40013A363E8
:10225000236843F040032360236843F08003236036
:102260000025C4F8005ED4F80038C4F80038032113
:102270002046FFF7C9FF04F5006610212046FFF74E
:10228000A1FF2046FFF7B0FF35612B467561294657
:10229000F56104F510624FF090404FF000654FF685
:1022A0007F3E43452FD1002104F5306208464FF0B0
:1022B00090454FF0006E4FF67F3C8B4234D133692E
:1022C00023F4807333610023A3616FF08043636163
:1022D000A36943F01003A361A2691C4B1343A361DC
:1022E0000D9B1BB1A36943F00803A361012F01BF3C
:1022F000A36943F0804343F00403A361BDE8F041C8
:10230000002004B07047D2F800C0BCF1000F09DA19
:1023100033B9156011610133C2F808E02032C0E71B
:102320001060F7E71160F5E7D2F80080B8F1000F10
:102330000ADA39B9C2F800E010610131C2F808C008
:102340002032BAE71560F7E71060F5E700383C8007
:1023500008B5D0F8043843F00203C0F8043803206D
:1023600000F0E4FC002008BD0E48022108B50E4B29
:10237000C1604FF480710122036081610023042158
:102380000271836003614361C361016243628262DF
:10239000C3620363FEF7B0F918B1BDE8084000F06E
:1023A00053BB08BD580100202060014010B5174CF8
:1023B00088B01422002103A801F01EF923681BBB7A
:1023C00003F1804303F5043303A91A6E104842F069
:1023D00080721A661A6E02F080720192019ADA6CAB
:1023E00042F01002DA64DB6C03F010030293029BEC
:1023F0004FF4207303930223049306230793FEF7FD
:10240000EFF923680133236008B010BDA800002055
:10241000001000482DE9F04F8DB01422002107A8CC
:1024200001F0EAF89E4B9F4EDA6C9F4FDFF88092E6
:10243000DFF880A2DFF880B242F01002DA64DA6CD2
:1024400002F010020292029ADA6C42F00402DA649C
:10245000DA6C02F004020392039ADA6C42F0010291
:10246000DA64DA6C02F001020492049ADA6C42F047
:102470000202DA64DA6C02F002020592059ADA6C62
:1024800042F00802DA64DB6C03F00803069330467E
:10249000002240F21511069BFEF77EFA002248F258
:1024A00024114FF09040FEF777FA384600224FF2A1
:1024B0003401FEF771FA4846002243F28101FEF72B
:1024C0006BFA002250464FF410710024FEF764FAB4
:1024D000012540F2151307A9304607930895099482
:1024E0000A94FEF77DF96A2307A930460793CDF8D1
:1024F00020B00994FEF774F94FF40053079307A92D
:102500006A4B089350460994FEF76AF93F230793F4
:1025100007A90B235046089301930994FEF760F92D
:1025200007A94FF0904002264FF003080795089442
:102530000994FEF755F9082207A94FF090400B9235
:102540000092079608960994CDF82880FEF748F97E
:1025500048F2241107914FF0904007A9089509947B
:102560000A94FEF73DF9009A079207A94FF09040B0
:10257000089609940A940B95FEF732F9019B08938B
:10258000102207A94FF0904007920994FEF728F90E
:10259000C022079207A905224FF090400B920092AB
:1025A00008960994CDF82880FEF71AF907A938464D
:1025B0000795CDF820B00994FEF712F9019B089316
:1025C00007A9384607960994FEF70AF94FF2340333
:1025D00007A938460793089509940A94FEF700F96D
:1025E0004CF6044307A948460793CDF820B0099458
:1025F000FEF7F6F843F2810307A9484607930895CA
:1026000009940A94FEF7ECF84FF4107307A95046AA
:102610000793089509940A94FEF7E2F84FF4C07303
:1026200007A950460793CDF820B00994FEF7D8F8D3
:10263000009A0B9207A94846079608960994CDF888
:102640002880FEF7CDF87823079307A9072348468B
:102650000B9308960994CDF82880FEF7C1F84FF443
:10266000407307931223089307A9042338460B935A
:102670000995CDF82880FEF7B3F8224621461720A9
:10268000FDF7B8FF1720FDF7E9FF22462146282075
:10269000FDF7B0FF2820FDF7E1FF0DB0BDE8F08F9A
:1026A0000010024000100048000400480000211003
:1026B000000C0048000800480000111008B512483E
:1026C000124B1349012280E80A0000238360C26094
:1026D000036143618361C3610362FEF76FF908B16F
:1026E00000F0B2F900210848FEF7B9F908B100F08E
:1026F000ABF900210448FEF7D8F918B1BDE808404D
:1027000000F0A2B908BD00BF90010020EC9C901021
:102710000058004010B5044688B01422002103A8D8
:1027200000F06AFF2268134B9A4221D1124C1348E1
:10273000E36C43F00203E364E36C03F002030193F0
:10274000019B4FF4406303931223049301230593E9
:102750000323069303A904230793FEF741F8A36D0F
:1027600043F48003A365A36D03F480030293029BEB
:1027700008B010BD0058004000100240000400489E
:10278000F0B5B9B014244422002105A800F034FFAC
:1027900022460021684600F02FFF0021882216A85B
:1027A00000F02AFFFEF740FA224AD2F8903023F0D8
:1027B0001803C2F8903060230125022605940D937A
:1027C00000242823072705A8129307950B950C943E
:1027D0000F9610951195139714961596FEF786FB94
:1027E0000F220421032368468DE80C000294039411
:1027F0000494FEF7A1FD104B16934FF080633193C4
:102800001823199316A84FF480131D93249426942B
:102810002B943694179518951A971B961C96FEF7CD
:1028200053FF4FF40070FEF70FFAFFF735F939B098
:10283000F0BD00BF00100240852001002DE9F743E4
:10284000FDF7B6FE6F4D704CDFF8DC816F4EFFF781
:1028500097FFFFF7DFFDFFF787FDFFF72FFF00F082
:10286000F5F800F043F900F077FD00F093FD00F07B
:1028700009FE10226649654800F02AFC00236348DF
:102880002B7000F027FD20702778002F37D12B7890
:10289000604C002B6CD0604A6048614EDFF8A48128
:1028A000642100F06DFF4FF47A7364225B495D4848
:1028B000FFF769FB37705C4F32782B789A422DD343
:1028C0000023594E514F237021782B788B425BD8CF
:1028D0004E4E564F304600F047FA304600F03CFB73
:1028E0000028FAD00023DFF84081237021782B786C
:1028F0008B4253D84FF47A7000F018FAEAE729783F
:102900000131C9B22970013908EBC101304600F02C
:10291000FBFC304600F0E5FC2070B5E70023DFF853
:10292000FC9023702278072A0ED941493B4800F0D9
:102930005BFF4FF47A73642238493A48FFF723FB70
:10294000337801333370B7E7337807EBC30364217F
:102950009B5C4846424600F013FF4FF47A736422B2
:1029600049463048FFF70FFB237801332370D9E73E
:1029700030492A4800F038FF4FF47A73642227491F
:102980002848FFF700FB9BE70C2206EBC101384605
:1029900000F07AFA23780133237095E709B207EB48
:1029A0008102304608EBC10100F0ECF920B3237836
:1029B0001A4807EB8302D2ED007A1F4ABDEEE77A90
:1029C0006421F8EEC76A8DED007A77EEE67ADFEDE6
:1029D0001B6A67EEA67AFDEEE77ACDED017A00F08C
:1029E000CFFE4FF47A7364220C490E48FFF7CBFAFE
:1029F00023780133237079E71149084800F0F4FE89
:102A0000EFE700BF0002002001020020E0010020EB
:102A100000040048F4010020B53E0008AC0000208E
:102A2000DC0100203403002002020020F801002015
:102A3000D53E0008D83E0008EC3E00080000C84221
:102A4000063F0008CC3E0008704700000A480B4AC9
:102A500008B5FF2380E80C00002301228260C360D8
:102A6000026143618361FEF753F918B1BDE8084084
:102A7000FFF7EABF08BD00BF14020020001000A04D
:102A800010B5044688B01422002103A800F0B4FD5C
:102A90002268144B9A4222D103F1204303F50033FC
:102AA00003A91A6D104842F480721A651A6D02F477
:102AB00080720192019ADA6C42F01002DA64DB6CE7
:102AC00003F010030293029B4FF47C430393022311
:102AD0000493032306930A230793FDF781FE08B0AE
:102AE00010BD00BF001000A00010004810481149A0
:102AF00008B54FF440724FF4827380E80A00C26058
:102B000000234FF400728360036143618261C361FB
:102B1000036243628362072203630823C262436342
:102B2000FEF7C2FF18B1BDE80840FFF78DBF08BD32
:102B300058020020003C004010B5044688B0142222
:102B4000002103A800F058FD2268134B9A4220D1BF
:102B500003F5EA3303A99A6D104842F400429A65DE
:102B60009A6D02F400420192019ADA6C42F004027A
:102B7000DA64DB6C03F004030293029B4FF4E0532E
:102B80000393022304930323069306230793FDF77D
:102B900027FE08B010BD00BF003C00400008004800
:102BA0000A4B1A6E42F001021A661A6E82B002F0E7
:102BB00001020092009A9A6D42F080529A659B6DD4
:102BC00003F080530193019B02B070470010024054
:102BD0007047FEE7FEE7FEE7FEE770477047704785
:102BE00000F06CB808B52020FDF7DCFE4020FDF7B2
:102BF000D9FE8020FDF7D6FE4FF48070BDE8084076
:102C0000FDF7D0BE08B54FF48060FDF7CBFE4FF462
:102C10000060FDF7C7FE4FF40050FDF7C3FE4FF410
:102C20008040FDF7BFFE4FF40040BDE80840FDF7CF
:102C3000B9BE00000F49D1F8883043F47003C1F8E1
:102C400088300D4B1A68002042F001021A6098602B
:102C50001A6822F0A85222F410221A604FF480520F
:102C6000DA601A6822F480221A6098614FF00063DB
:102C70008B60704700ED00E0001002400C4BDA68FA
:102C800022F08072DA60DA6842F08072DA60094B12
:102C90001A6822F001021A601A6842F001021A60F2
:102CA00000225A605A6800BF00BF5868801A7047F7
:102CB000F0ED00E0001000E070470000184AF8B5A1
:102CC000136801331360174B1A6812B11A68013A7E
:102CD0001A60154E002537463378ECB2A34202D86D
:102CE000FFF7EAFFF8BDA40033195868B0B10378C4
:102CF0009B0713D583680BB1013B836083686BB975
:102D00003C44C368016998476268536893601378CC
:102D100013F0010104BF61F3410313700135DBE7D8
:102D2000280100202C01002010010020EFF3058372
:102D300013B1084B38B97047074B19681A68521A13
:102D40009042FBD870471A68D20348BF00F1FF30A9
:102D5000F0E700BF10E000E028010020014B1868F8
:102D6000704700BF2801002010B5044600F0C2F9EA
:102D70002046CC2100F022FA20464421BDE8104034
:102D800000F01CBAF0B50B78282B85B007460C462E
:102D9000154610D0002005B0F0BDC4F3420207EE86
:102DA000902AFAEEEE7A5DE004F00F0207EE902A28
:102DB000FAEECE7A56E000F0E3F90028EAD0384681
:102DC00000F098F92146384600F08EFABE213846C8
:102DD00000F0F4F9002401AE384600F0FFF9305558
:102DE0000134092CF8D10821304600F098FA9DF8FA
:102DF0000C308342CED19DF805309DF8046046EA40
:102E0000032636B2384600F075F9B4B2002EBCBFC6
:102E10006442A4B24FEA141303F0700244F30713A0
:102E200043EA02039DF80820C2F3411202F10902AD
:102E3000B4BF012100210B2AAFD00C2AB4D00A2A3A
:102E40001BBFC4F3C00207EE902AC4F38102F8EE60
:102E5000E77A0DBF07EE902AB6EE007A67EE877A22
:102E6000FAEECF7A07EE103AB8EEC77A77EE277A05
:102E700019B19FED047A77EE677AC5ED007A0120EB
:102E800089E700BF000000002DE9F8430B78282BEC
:102E900004460E46914619D00020BDE8F883B9F1EA
:102EA0000A0F04D105F0BF0545F020052FE0B9F168
:102EB0000B0F04D105F0DF0545F0400527E0B9F11F
:102EC0000C0F04BF45F06005EDB220E000F012F9F0
:102ED0003146204600F008FABE21204600F06EF987
:102EE000204600F07BF9204600F078F9204600F0FB
:102EF00075F90746204600F071F98046204600F03B
:102F00006DF9B9F1090F0546C9D105F09F052046B5
:102F100000F0F0F83146204600F0E6F920464E2158
:102F200000F04CF93946204600F048F94146204669
:102F300000F044F92946204600F040F9204600F010
:102F4000D9F83146204600F0CFF92046482100F05C
:102F500035F90120BDE8F88300F012B930B500233F
:102F6000032541FA03F2D20706D502685C0005FA90
:102F700004F422EA040202600133102BF1D130BDC7
:102F8000F0B500230325012641FA03F2D20709D543
:102F900002685C0005FA04F722EA070206FA04F464
:102FA000224302600133102BEED1F0BD044BC0F37D
:102FB0008F219A6C0120884010439864704700BFAD
:102FC000001002402DE9F04F85B002F1FF3E9DF860
:102FD00038400294DFF88C809DF83C4003940193C4
:102FE0000024C0F3872C4FF0030A5FFA8EFE41FAEB
:102FF00004F5EB0730D5012338F81C50C76803FAF5
:1030000004F949EA050528F81C5004FA03F50AFA00
:1030100005F6029BF64303FA05FB374047EA0B0728
:10302000C760076802FA05FB374047EA0B07BEF1A5
:10303000010F076010D84768019B27EA090903FAC6
:1030400004F7BFB249EA070747608768039B3E4021
:1030500003FA05F52E4386600134102CC7D105B064
:10306000BDE8F08F300100202DE9F04705461646F7
:103070001F469DF820809DF824900C4669B1FFF70B
:1030800095FFCDF82490CDF820803B46324621466E
:103090002846BDE8F047FFF795BFBDE8F087000080
:1030A00037B5094C01906568FEF7D8F9019B074ACE
:1030B000B0FBF2F0434301936368019A5B1B9342B8
:1030C000FAD303B030BD00BF001000E040420F0053
:1030D00073B50E4615460446FFF7D0FD0122019256
:1030E0000092002329463046FFF7BEFF2660A580E8
:1030F00002B070BD10B504460068A1880B0483615E
:10310000FFF73EFF4FF4F070FFF7CAFFA188206879
:10311000FFF724FF4620FFF7C3FF2368A2881B693F
:103120001A4214BF012400244FF4CD70FFF7B8FFFA
:10313000204610BD10B504460068A3881A048261B9
:1031400091B11946FFF71CFF0A20FFF7A9FF20687D
:10315000A188FFF703FF3720FFF7A2FFA1882068AF
:10316000BDE81040FFF7FABE1946FFF709FF4120FE
:10317000FFF796FF2068A188FFF7F0FE0520EBE738
:1031800010B504460068A1880B048361FFF7F8FEC0
:103190000320FFF785FFA1882068FFF7DFFE0A20E4
:1031A000FFF77EFF2368A2881B691A4214BF01241F
:1031B00000243220FFF774FF204610BD70B506468C
:1031C0000D460924013C14F0FF0400D170BD05F048
:1031D00001013046FFF7AEFF6D08F3E770B5064614
:1031E00009250024013D15F0FF0501D1204670BDE1
:1031F0003046FFF7C5FF640844EAC014E4B2F1E7C3
:103200002DE9F843037A04460D461BB9FFF772FF18
:10321000814628B10020A0712072E071BDE8F883DA
:1032200029462046FFF7CAFF01264F46354620466D
:10323000FFF7A6FF80462046FFF7A2FFB8F1010F77
:1032400010D101282ED1402DE4D984F80690B9F18F
:10325000000F01D101232372637A002BDAD0012001
:10326000BDE8F883804504EB070310D1A2799542AD
:1032700012D25A7A164214BF4FF001084FF00008DC
:10328000B8F1000F0ED1082D00D8E571A9465A7A81
:1032900022EA06025A720BE00CBF4FF001084FF011
:1032A0000008EDE7E2194FF00108537A33435372F7
:1032B000414620467600FFF73DFF16F0FF0604BFAB
:1032C0000137FFB205F1010508BF0126072FEDB256
:1032D000ADD9B8E7002282710272C271F021FFF706
:1032E0008FBFF021FFF78CBF70B50C465521064605
:1032F000FFF764FF651E073415F8011F3046FFF71E
:103300005DFFA542F8D170BD00F10903013911300C
:1033100013F8012B01F8012F8342F9D1704730B522
:1033200001440023884201D1184630BD10F8014BFA
:10333000082283EA040515F0010F4FEA530318BF72
:1033400083F08C0302F1FF3218BFDBB212F0FF02F0
:103350004FEA5404EDD1E5E708B50C480C4B4FF4A7
:10336000E13E80E808400C2200238360C3600361D3
:1033700042618361C36103624362FEF78DFE18B14F
:10338000BDE80840FFF760BB08BD00BF3403002064
:103390000038014008B50C480C4B4FF4E13E80E882
:1033A00008400C2200238360C36003614261836193
:1033B000C36103624362FEF76FFE18B1BDE80840C7
:1033C000FFF742BB08BD00BFBC0200200048004020
:1033D00010B514228AB0044600210DEB020000F063
:1033E0000BF92368224A934220D1224B22481A6EBD
:1033F00042F480421A661A6E02F480420192019AE7
:10340000DA6C42F00202DA64DB6C03F0020302932E
:10341000029BC023059302230693032308930723EB
:10342000099305A9FDF7DCF90AB010BD134A9342D0
:10343000FAD1104B12489A6D42F480229A659A6D27
:1034400002F480220392039ADA6C42F00802DA64F2
:10345000DB6C03F008030493049B4FF44073059363
:1034600002230693032308930723099305A9D9E7A9
:1034700000380140001002400004004800480040AD
:10348000000C00480C4808B54FF0A042062380E825
:103490000C0000230222C26043618261C3610362A7
:1034A000436283620363C362FDF724FB18B1BDE886
:1034B0000840FFF7C9BA08BDAC03002010B50446A8
:1034C00088B01422002103A800F096F82368B3F115
:1034D000A04F3CD1204CE36C43F00103E364E36C68
:1034E00003F001030093009B03A94FF400734FF016
:1034F00090400393FDF774F94FF4E05303930223D4
:103500000493002305930323069303A90A234FF092
:1035100090400793FDF764F9E36C43F48053E36450
:10352000E36C03F480530193019BA36DDB0010D483
:10353000A36D43F08053A365A36D03F08053029302
:10354000029BFDF7B7FBA36D23F08053A36508B082
:1035500010BDFDF7AFFBFAE700100240DFF834D0F2
:10356000002103E00C4B5B58435004310B480C4BDB
:1035700042189A42F6D30B4A02E0002342F8043B79
:10358000094B9A42F9D3FFF755FB00F011F8FFF70A
:1035900055F9FEE700800120A43F0008000000204C
:1035A0006800002068000020B8070020FEE7000047
:1035B00070B50D4E0D4CA41BA4100025A54209D1D9
:1035C0000B4E0C4C00F062FCA41BA4100025A5427D
:1035D00005D170BD56F8253098470135EEE756F80D
:1035E000253098470135F2E79C3F00089C3F0008D2
:1035F0009C3F0008A03F000802440346934200D1CC
:10360000704703F8011BF9E738B50546002945D096
:1036100051F8043C0C1F002BB8BFE41800F0ECF884
:103620001F4A1368104633B9636014602846BDE82A
:10363000384000F0E2B8A3420CD9216862189342E6
:1036400004BF1A685B68636004BF5218226004609C
:10365000ECE713465A680AB1A242FAD91968581819
:10366000A0420BD120680144581882421960DDD174
:10367000106852685A6001441960D7E702D90C23D8
:103680002B60D3E7206821188A4204BF1168526872
:10369000626004BF091821605C60C7E738BD00BFE5
:1036A0004C01002070B5CD1C25F0030508350C2D0C
:1036B00038BF0C25002D064601DBA94203D90C2397
:1036C0003360002070BD00F097F8234A146821464B
:1036D00091B9224C23681BB9304600F041F82060B4
:1036E0002946304600F03CF8431C26D10C233360B9
:1036F000304600F082F8E4E70B685B1B1AD40B2B12
:103700000FD90B60CD50CC18304600F076F804F19C
:103710000B00231D20F00700C31A1BD05A42E250B1
:1037200070BD8C420DBF63684B686360136018BF47
:103730000C46E9E70C464968CAE7C41C24F00304B8
:10374000A04205D0211A304600F00AF80130CDD051
:103750002560D9E770BD00BF4C010020500100205A
:1037600038B5064C002305460846236000F080FB70
:10377000431C02D1236803B12B6038BDB40700207D
:103780000CB430B5174B0C1E9DB01D6808DA8B23A6
:103790002B604FF0FF301DB0BDE8304002B07047E5
:1037A0004FF40273ADF8143014BF04F1FF33234615
:1037B000049307934FF6FF7302900690ADF816300E
:1037C000209A21AB02A92846019300F073F8431C0C
:1037D000BCBF8B232B60002CDDD0029B00221A7013
:1037E000D9E700BF04000020034611F8012B03F8BD
:1037F000012B002AF9D17047704770472DE9F04737
:103800008E689E4282460C469146984635D88A89F3
:1038100012F4906F31D0256809696F1A6569022327
:1038200005EB450595FBF3F508F101033B449D428B
:1038300038BF1D46530531D52946FFF733FF0646ED
:1038400050B90C23CAF80030A38943F04003A38188
:103850004FF0FF30BDE8F0873A46216900F0B4FA36
:10386000A38923F4906343F08003A38126616561FB
:103870003E44ED1B2660A5604646464528BF4646A9
:1038800032464946206800F0AAFAA3689B1BA36051
:1038900023681E4426600020BDE8F0872A4600F019
:1038A000B8FA06460028E1D121695046FFF7ACFE80
:1038B000C7E700002DE9F04F9DB0804603938B8948
:1038C0001C060D4616460FD50B696BB94021FFF754
:1038D000E9FE2860286128B90C23C8F800304FF0B1
:1038E000FF30C5E040236B610023099320238DF84E
:1038F000293030238DF82A304FF0010B37463C46F3
:1039000014F8013B002B3CD1B7EB060A0BD0534611
:10391000324629464046FFF771FF013000F0A38090
:10392000099B534409933B78002B00F09C800023B3
:103930004FF0FF3204930793059206938DF85330AE
:103940001A93052221785048FCF742FC671C049B1F
:10395000D8B9D90644BF20228DF853201A0744BF96
:103960002B228DF8532022782A2A16D0079A00217C
:103970000A20274601343B78303B092B51D9C9B185
:1039800011E0252BC0D02746B9E73F4A801A0BFA31
:1039900000F0184304903C46D3E7039A111D1268C7
:1039A0000391002A01DB079204E0524243F0020334
:1039B000079204933B782E2B0ED17B782A2B07F1AC
:1039C000010132D1039B1A1D1B680392002BB8BF63
:1039D0004FF0FF33023705932C4C397803222046F1
:1039E000FCF7F6FB38B14023001B03FA00F0049B00
:1039F000034304930137397825488DF828100622AF
:103A00007E1CFCF7E5FB002835D0224BFBB9039B5D
:103A1000073323F0070308330393099B4B440993AF
:103A20006CE700FB02320121A3E70023059318464F
:103A30000A240F4601313A78303A092A03D9002B7B
:103A4000CAD00590C8E704FB00200123F1E703ABCF
:103A500000932A46104B04A94046AFF30080B0F112
:103A6000FF3F8146D9D1AB895B063FF538AF099856
:103A70001DB0BDE8F08F03AB00932A46064B04A9A6
:103A8000404600F081F8EAE7603F0008663F000822
:103A90006A3F000800000000FD3700082DE9F047EC
:103AA00091461F468A680B69DDF820809342B8BFB3
:103AB0001346C9F8003091F8432006460C4612B16F
:103AC0000133C9F800302368990642BFD9F80030A5
:103AD0000233C9F80030256815F0060507D104F156
:103AE000190AE368D9F800209B1A9D4229DB94F853
:103AF00043302268003318BF012392062ED404F10C
:103B0000430239463046C047013021D02368E5687A
:103B1000D9F8002003F00603042B08BFAD1AA368F0
:103B200022690CBF25EAE57500259342C4BF9B1AA4
:103B3000ED184FF000091A344D451BD10020BDE8A7
:103B4000F0870123524639463046C047013003D141
:103B50004FF0FF30BDE8F0870135C2E7E1185A1C8D
:103B6000302081F84300224494F8451082F8431035
:103B70000233C4E70123224639463046C0470130AC
:103B8000E6D009F10109D7E72DE9F04317460A7E8F
:103B900085B06E2A984606460C460C9B01F1430EF2
:103BA00000F0BC801AD8632A2ED00AD8002A00F070
:103BB000C880582A00F08A8004F1420584F8422027
:103BC0002AE0642A01D0692AF6D121681A6811F026
:103BD000800F23D0111D1960136827E0732A00F0AD
:103BE000B48008D86F2A2AD0702AE5D10A6842F03A
:103BF00020020A6003E0752A21D0782ADCD17822DD
:103C000084F845206E4964E01A6801F14205111DEF
:103C10001960136884F842300123A3E011F0400FCB
:103C200002F104011960D7D0B2F90030002B03DA99
:103C30002D225B4284F8432062490A2217E0206863
:103C4000196810F0800F03D0081D18600B6806E09B
:103C500010F0400F01F104001860F7D00B885949AB
:103C60006F2A14BF0A220822002084F843006568E6
:103C7000A560002DC0F29C80206820F00400206028
:103C8000002B3FD1002D40F095807546082A0BD1BE
:103C90002368DA0708D5236962689A42DEBF3023B9
:103CA00005F8013C05F1FF35AEEB05032361CDF8C6
:103CB00000803B4603AA21463046FFF7EFFE013065
:103CC00055D14FF0FF3005B0BDE8F08381F84520B5
:103CD0003C492268186812F0800F00F104051D604D
:103CE00001D0036802E05506FBD50388D00744BF26
:103CF00042F0200222601BB9226822F020022260DA
:103D00001022B1E77546B3FBF2F002FB1033CB5C37
:103D100005F8013D03460028F5D1B7E708681A68A1
:103D2000496910F0800F04D0101D186013681960E5
:103D300007E010F0400F02F1040018601368F6D09D
:103D40001980002323617546B1E71A68111D1960B7
:103D50001568626800212846FCF73AFA08B1401B52
:103D6000606063682361002384F843309FE7236920
:103D70002A4639463046C0470130A2D023689B0707
:103D800007D5002504F11909E368039A9B1A9D429F
:103D900005DBE068039B9842B8BF184693E7012310
:103DA0004A4639463046C04701308AD00135EBE7F4
:103DB000002BA7D10B7884F8423004F1420565E767
:103DC000823F0008713F000810B5431E0A4491422B
:103DD00000D110BD11F8014B03F8014FF7E78842FD
:103DE00010B501EB020303D8421E99420CD110BD5D
:103DF0009842F9D28118D21AD34200D110BD13F8DB
:103E0000014D01F8014DF7E711F8014B02F8014FA0
:103E1000EBE7F8B5074614460E4621B91146BDE852
:103E2000F840FFF73FBC22B9FFF7EEFB25462846D6
:103E3000F8BD00F014F884420FD921463846FFF748
:103E400031FC05460028F2D031462246FFF7BCFF80
:103E500031463846FFF7D8FBE9E73546E7E751F842
:103E6000040C0028A0F10400BCBF0B58C018704718
:103E7000044B1968024609B90349196018680244DD
:103E80001A60704754010020B8070020F8B500BF41
:103E9000F8BC08BC9E467047F8B500BFF8BC08BC2B
:043EA0009E46704783
:103EA4000104020800101010041010100210101069
:103EB40008204465766963657320666F756E643A9D
:103EC4002025643A200A0D0020307825303258200D
:103ED400000A2000204E6F206465766963657320B4
:103EE400666F756E642E200054454D504552415402
:103EF4005552452025643A2025642E253032640A23
:103F04000D0052656164696E67206572726F723B61
:103F14000A0000000000000000000102030406077C
:103F2400080900000000010203040000A08601004B
:103F3400400D0300801A060000350C0040420F00BB
:103F440080841E0000093D0000127A000024F40061
:103F540000366E010048E801006CDC02232D302B92
:103F64002000686C4C006566674546470030313276
:103F740033343536373839414243444546003031CD
:103F8400323334353637383961626364656600002C
:083F94000CC3FF7F01000000D7
:043F9C00B501000863
:043FA0009101000883
:103FA40000093D000800002000000000000000009F
:103FB40000000000000000000000000000000000FD
:103FC40000000000000000000000000000000000ED
:103FD40000000000000000000000000000000000DD
:103FE40000000000000000000000000000000000CD
:103FF40000000000000000000000000000000000BD
:084004000000000000000000B4
:040000050800355D5D
:00000001FF
